:020000040000FA
:020000004C288A
:040002000034003492
:08000800831203130C1B0B28EB
:100010008C1A1B280900831203138B131E08A200DD
:10002000831603131E0883120313A3000C138B17EC
:10003000AA30A7000900831203138B131A08CB0000
:10004000F700F000F4007708CB00E13A03192A2802
:1000500049280900C130CA00E725BD254E08CA005D
:10006000E725BD254F08CA00E725BD254C08CA0075
:10007000E725BD254D08CA00E725BD257808CA003B
:10008000E725BD257908CA00E725BD25C230CA008D
:10009000E7258C128B170900831603133F30850068
:1000A0008601BF3087008312031383120313A0015C
:1000B000850186018701A701C8015830B400B50049
:1000C000B700B600B800B900BA00BB00BC00BD0064
:1000D000BE00A721D6215D230822CD25CD25CD2523
:1000E000CD25A0230822831603132630980019304B
:1000F000990083120313981718168B170B17831682
:1001000003138C16831203138B170B179F111F12E7
:100110009F121F152708AA3A031D8A284923480859
:10012000003A0319C4284808013A0319A0284808CE
:10013000023A0319AC284808033A0319B828C4281E
:100140000430C900A3032308FF3A0319A828A928EB
:10015000A203C90BA228C4280930C900A30323089D
:10016000FF3A0319B428B528A203C90BAE28C42846
:100170001230C900A3032308FF3A0319C028C1287D
:10018000A203C90BBA28C428A7010430C20038232F
:100190000330C000E830C1000930C2002208CC00A2
:1001A0002308CD0082223008A1006F2226083038B3
:1001B000B8003108A1006F2226083038B900320893
:1001C000A1006F2226083038BA003308A1006F2240
:1001D00026083038BB00A0230822831203138B1794
:1001E0000B179F151F129F121F152708AA3A031DF0
:1001F000F52849234808003A03192F294808013AED
:1002000003190B294808023A031917294808033A29
:10021000031923292F290430C900A3032308FF3A17
:10022000031913291429A203C90B0D292F290830FA
:10023000C900A3032308FF3A03191F292029A20399
:10024000C90B19292F290B30C900A3032308FF3A32
:1002500003192B292C29A203C90B25292F29A70112
:100260000030C0001630C1000930C20082223008C0
:10027000CE003108CF00CF07CF07CF07CF07CF077A
:10028000CF07CF07CF07CF073208CF073008A1002D
:100290006F2226083038B50025083038B400310800
:1002A000A1006F2226083038B7003208A1006F2263
:1002B00026083038B600A0230822831203138B17B8
:1002C0000B179F111F169F121F152708AA3A031D0F
:1002D0006529A7012208C6002308C7000930C2000B
:1002E00038230030C0001430C1000930C20082221F
:1002F0003008A1006F2226083038BD0025083038AC
:10030000BC003108A1006F2226083038BE0030083A
:10031000F8003108F900A02308220310C60CC70C0E
:10032000031028304702C70003189C29C60346085B
:10033000FF3A0319A5299C29031000304602C60084
:100340000318A329A52987178228871382288316D3
:1003500003139F171F109F141F119F118312031364
:100360001F179F171F14831603130C1783120313F1
:1003700008002008F03986008615C8258611200E51
:10038000F03986008615C825861106140800200855
:10039000F039860006148615C8258611200EF0391E
:1003A000860006148615C8258611080083120313DB
:1003B00000308600C830A800BD2530308600861584
:1003C000C82586110A30A800BD258615C8258611C6
:1003D0008615C8258611203086008615C825861109
:1003E0008615C8258611803086008615C825861199
:1003F0000E30A000B921CD250130A000B921203058
:10040000A000C721CD250C30A000B921082208008A
:100410008030A000B9215008A000C7215108A000D9
:10042000C7215208A000C7215308A000C7215408C3
:10043000A000C7215508A000C7215608A000C72169
:100440005708A000C7215808A000C7215908A000DC
:10045000C7215A08A000C7215B08A000C7215C087B
:10046000A000C7215D08A000C7215E08A000C72129
:100470005F08A000C721C030A000B9216008A0001B
:10048000C7216108A000C7216208A000C721630836
:10049000A000C7216408A000C7216508A000C721EB
:1004A0006608A000C7216708A000C7216808A0004F
:1004B000C7216908A000C7216A08A000C7216B08EE
:1004C000A000C7216C08A000C7216D08A000C721AB
:1004D0006E08A000C7216F08A000C7210800831282
:1004E0000313A601A50103100A30A10203187C2AF8
:1004F0000A302107A600812AA50A2108003A031D17
:10050000732A080083120313B001B101B201B301D1
:10051000031041082302A30003189B2AA203220808
:10052000FF3A0319942A9B2A4108A3070318992A22
:10053000B32AA20AB32A031040082202A200031819
:10054000AA2A4108A3070318A62AA72AA20A400834
:10055000A207B32AB00A2308003A031D882A2208FA
:10056000003A031D882A3823031041082302A30000
:100570000318C72AA2032208FF3A0319C02AC72A70
:100580004108A3070318C52ADF2AA20ADF2A03109D
:1005900040082202A2000318D62A4108A307031824
:1005A000D22AD32AA20A4008A207DF2AB10A2308C6
:1005B000003A031DB42A2208003A031DB42A382346
:1005C000031041082302A3000318F32AA203220800
:1005D000FF3A0319EC2AF32A4108A3070318F12A6A
:1005E0000B2BA20A0B2B031040082202A2000318B7
:1005F000022B4108A3070318FE2AFF2AA20A40087B
:10060000A2070B2BB20A2308003A031DE02A220896
:10061000003A031DE02A3823031041082302A300F7
:1006200003181F2BA2032208FF3A0319182B1F2BB4
:100630004108A30703181D2B0800A20A0800031095
:1006400040082202A20003182E2B4108A30703181A
:100650002A2B2B2BA20A4008A2070800B30A230862
:10066000003A031D0C2B2208003A031D0C2B080036
:100670004208C3002308C5002208C4004508A30798
:100680000318432B442BA20A4408A207C30B3E2B9A
:10069000080022184E2BA218572B512BA2185A2BA8
:1006A000542B0030C80008000130C8000800023098
:1006B000C80008000330C80008008312031320306C
:1006C000D0002030D1002030D2002030D3002030A4
:1006D000D4005330D5004D30D6004330D7005030D1
:1006E000D8004130D9004D30DA002030DB00203016
:1006F000DC002030DD002030DE002030DF00203044
:10070000E0005430E1005430E2002030E3003230A9
:10071000E4003030E5003130E6003830E7002030CA
:10072000E8002D30E9002030EA004130EB003130A4
:10073000EC003030ED003230EE002030EF000800E9
:10074000831203135630D0002030D1003408D20079
:100750003508D3002E30D4003708D5003608D6002F
:100760005630D7002030D8002030D9005430DA007D
:100770006530DB006D30DC007030DD002030DE00E5
:100780002030DF004930E0002030E1003808E2008E
:100790002E30E3003908E4003A08E5003B08E600A3
:1007A0004130E7002030E8003C08E9003D08EA005D
:1007B0002E30EB003E08EC002030ED00DF30EE0084
:1007C0004330EF000800831203135230D00078301A
:1007D000D1004430D2006530D3006330D4002030E3
:1007E000D5007108D6007208D7007308D8002030F1
:1007F000D9004830DA006530DB007830DC0020308A
:10080000DD007508DE007608DF005230E000783049
:10081000E1004130E2005330E3004330E400433074
:10082000E5004930E6002030E7004B08E8002030C2
:10083000E9002030EA002030EB002030EC002030CE
:10084000ED002030EE002030EF000800831203138B
:100850005230D0007830D1004430D2006530D3001F
:100860006330D4002030D5007108D6007208D7005C
:100870007308D8002030D9004830DA006530DB003A
:100880007830DC002030DD007508DE007608DF00FF
:100890005230E0007830E1004130E2005330E300B4
:1008A0004330E4004330E5004930E6002030E70003
:1008B0004B08E8002030E9005030EA004930EB00F6
:1008C0004330EC002030ED005430EE007830EF0083
:1008D0000800831203132008D0002108D100203023
:1008E000D2002208D3002308D4002030D5002408E9
:1008F000D6002508D7002030D8002608D9002708C0
:10090000DA002030DB002808DC002908DD00203078
:10091000DE002030DF002030E0002A08E1002B0854
:10092000E2002030E3002030E4002C08E5002D0830
:10093000E6002030E7002030E8002E08E9002F080C
:10094000EA002030EB002030EC002030ED002030B9
:10095000EE002030EF00080083120313F301F201D0
:10096000F10103106430F0020318B92C6430F00771
:10097000BE2CF10A7008003A031DB12C03100A3096
:10098000F0020318C72C0A307007F300CC2CF20ACF
:100990007008003A031DBE2C3030F304F204F10459
:1009A000080083120313F501F6017408F6000F30F6
:1009B000F6057608003A0319192D7608013A03194D
:1009C0001C2D7608023A03191F2D7608033A0319E5
:1009D000222D7608043A0319252D7608053A0319C5
:1009E000282D7608063A03192B2D7608073A0319A5
:1009F0002E2D7608083A0319312D7608093A031985
:100A0000342D76080A3A0319372D76080B3A031964
:100A10003A2D76080C3A03193D2D76080D3A031944
:100A2000402D76080E3A0319432D76080F3A031924
:100A3000462D3030F600492D3130F600492D323048
:100A4000F600492D3330F600492D3430F600492D9B
:100A50003530F600492D3630F600492D3730F60096
:100A6000492D3830F600492D3930F600492D4130F6
:100A7000F600492D4230F600492D4330F600492D4D
:100A80004430F600492D4530F600492D4630F60039
:100A9000492DF40E0F307405F5007508003A03195E
:100AA0008D2D7508013A0319902D7508023A031926
:100AB000932D7508033A0319962D7508043A031906
:100AC000992D7508053A03199C2D7508063A0319E6
:100AD0009F2D7508073A0319A22D7508083A0319C6
:100AE000A52D7508093A0319A82D75080A3A0319A6
:100AF000AB2D75080B3A0319AE2D75080C3A031986
:100B0000B12D75080D3A0319B42D75080E3A031965
:100B1000B72D75080F3A0319BA2D3030F5000800CB
:100B20003130F50008003230F50008003330F500B0
:100B300008003430F50008003530F5000800363084
:100B4000F50008003730F50008003830F5000800DF
:100B50003930F50008004130F50008004230F5005A
:100B600008004330F50008004430F5000800453027
:100B7000F50008004630F50008000230A900A63054
:100B8000AA00AA0BC12DA90BBF2DA80BBD2D0800D3
:100B90000A30AA00AA0BCA2D0800FF30AB000830AB
:100BA000AC00A630AD00AD0BD32DAC0BD12DAB0BF3
:100BB000CF2D08007D30AB000830AC00A630AD0072
:100BC000AD0BE02DAC0BDE2DAB0BDC2D080083163E
:100BD00003132630980019309900831203139817D5
:0A0BE0004A0899000C1EF22D0800CF
:02400E00311966
:00000001FF
