:020000040000FA
:020000004C288A
:040002000034003492
:08000800831203130C1B0B28EB
:100010008C1A1B280900831203138B131E08A200DD
:10002000831603131E0883120313A3000C138B17EC
:10003000AA30A7000900831203138B131A08CB0000
:10004000F700F000F4007708CB00E23A03192A2801
:1000500049280900C130CA00E825BE254E08CA005B
:10006000E825BE254F08CA00E825BE254C08CA0071
:10007000E825BE254D08CA00E825BE257808CA0037
:10008000E825BE257908CA00E825BE25C230CA0089
:10009000E8258C128B170900831603133F30850067
:1000A0008601BF3087008312031383120313A0015C
:1000B000850186018701A701C8015830B400B50049
:1000C000B700B600B800B900BA00BB00BC00BD0064
:1000D000BE00A821D7215E230922CE25CE25A1234B
:1000E00009228316031326309800193099008312D1
:1000F0000313981718168B170B17831603138C16F8
:10010000831203138B170B179F111F129F12BE250B
:100110001F152708AA3A031D89284A234808003AD0
:100120000319C3284808013A03199F284808023ACE
:100130000319AB284808033A0319B728C328043029
:10014000C900A3032308FF3A0319A728A828A2037C
:10015000C90BA128C3280930C900A3032308FF3A0B
:100160000319B328B428A203C90BAD28C328123041
:10017000C900A3032308FF3A0319BF28C028A2031C
:10018000C90BB928C328A7010430C20039230330A2
:10019000C000E830C1000930C2002208CC002308AA
:1001A000CD0083223008A100702226083038B80024
:1001B0003108A100702226083038B9003208A100A9
:1001C000702226083038BA003308A10070222608B1
:1001D0003038BB00A1230922831203138B170B179E
:1001E0009F151F129F12BE251F152708AA3A031D2F
:1001F000F5284A234808003A03192F294808013AEC
:1002000003190B294808023A031917294808033A29
:10021000031923292F290430C900A3032308FF3A17
:10022000031913291429A203C90B0D292F290830FA
:10023000C900A3032308FF3A03191F292029A20399
:10024000C90B19292F290B30C900A3032308FF3A32
:1002500003192B292C29A203C90B25292F29A70112
:100260000030C0001630C1000930C20083223008BF
:10027000CE003108CF00CF07CF07CF07CF07CF077A
:10028000CF07CF07CF07CF073208CF073008A1002D
:10029000702226083038B50025083038B4003108FF
:1002A000A100702226083038B7003208A100702261
:1002B00026083038B600A1230922831203138B17B6
:1002C0000B179F111F169F12BE251F152708AA3A4C
:1002D000031D6629A7012208C6002308C7000930AC
:1002E000C20039230030C0001430C1000930C20000
:1002F00083223008A100702226083038BD0025086E
:100300003038BC003108A100702226083038BE0009
:100310003008F8003108F900A12309220310C60CA7
:10032000C70C031028304702C70003189D29C603D5
:100330004608FF3A0319A6299D29031000304602FA
:10034000C6000318A429A6298717802887138028A8
:10035000831603139F171F109F141F119F118312E1
:1003600003131F179F171F14831603130C178312F1
:10037000031308002008F03986008615C925861168
:10038000200EF03986008615C9258611061408004E
:100390002008F039860006148615C9258611200E1E
:1003A000F039860006148615C925861108008312C7
:1003B000031300308600C830A800BE253030860008
:1003C0008615C92586110A30A800BE258615C925BF
:1003D00086118615C9258611203086008615C92507
:1003E00086118615C9258611803086008615C92597
:1003F00086110E30A000BA21CE250130A000BA210E
:100400002030A000C821CE250C30A000BA2109223E
:1004100008008030A000BA215008A000C82151086F
:10042000A000C8215208A000C8215308A000C8217C
:100430005408A000C8215508A000C8215608A000F3
:10044000C8215708A000C8215808A000C821590891
:10045000A000C8215A08A000C8215B08A000C8213C
:100460005C08A000C8215D08A000C8215E08A000AB
:10047000C8215F08A000C821C030A000BA216008D0
:10048000A000C8216108A000C8216208A000C821FE
:100490006308A000C8216408A000C8216508A00066
:1004A000C8216608A000C8216708A000C821680804
:1004B000A000C8216908A000C8216A08A000C821BE
:1004C0006B08A000C8216C08A000C8216D08A0001E
:1004D000C8216E08A000C8216F08A000C82108002C
:1004E00083120313A601A50103100A30A102031809
:1004F0007D2A0A302107A600822AA50A2108003A8F
:10050000031D742A080083120313B001B101B20164
:10051000B301031041082302A30003189C2AA2037D
:100520002208FF3A0319952A9C2A4108A3070318B9
:100530009A2AB42AA20AB42A031040082202A2006E
:100540000318AB2A4108A3070318A72AA82AA20A5E
:100550004008A207B42AB00A2308003A031D892ADA
:100560002208003A031D892A392303104108230277
:10057000A3000318C82AA2032208FF3A0319C12ABC
:10058000C82A4108A3070318C62AE02AA20AE02ABB
:10059000031040082202A2000318D72A4108A3072B
:1005A0000318D32AD42AA20A4008A207E02AB10AD3
:1005B0002308003A031DB52A2208003A031DB52A74
:1005C0003923031041082302A3000318F42AA203CD
:1005D0002208FF3A0319ED2AF42A4108A307031859
:1005E000F22A0C2BA20A0C2B031040082202A200B4
:1005F0000318032B4108A3070318FF2A002BA20AA4
:100600004008A2070C2BB20A2308003A031DE12A76
:100610002208003A031DE12A39230310410823026E
:10062000A3000318202BA2032208FF3A0319192B59
:10063000202B4108A30703181E2B0800A20A08005C
:10064000031040082202A20003182F2B4108A30721
:1006500003182B2B2C2BA20A4008A2070800B30A70
:100660002308003A031D0D2B2208003A031D0D2B11
:1006700008004208C3002308C5002208C40045083A
:10068000A3070318442B452BA20A4408A207C30B57
:100690003F2B080022184F2BA218582B522BA218C0
:1006A0005B2B552B0030C80008000130C800080043
:1006B0000230C80008000330C8000800831203138A
:1006C0002030D0002030D1002030D2002030D300A4
:1006D0002030D4005430D5004F30D6005230D700EF
:1006E0004E30D8004130D9005330DA004F30DB00B3
:1006F0004C30DC002030DD002030DE002030DF0018
:100700002030E0005430E1005430E2002030E300BB
:100710003230E4003030E5003130E6003830E700B8
:100720002030E8002D30E9002030EA004130EB00B5
:100730003130EC003030ED003230EE002030EF0090
:100740000800831203135630D0002030D100340843
:10075000D2003508D3002E30D4003708D500360833
:10076000D6005630D7002030D8002030D900543081
:10077000DA006530DB006D30DC007030DD002030E9
:10078000DE002030DF004930E0002030E100380892
:10079000E2002E30E3003908E4003A08E5003B08A7
:1007A000E6004130E7002030E8003C08E9003D0861
:1007B000EA002E30EB003E08EC002030ED00DF3088
:1007C000EE004330EF000800831203135230D000D4
:1007D0007830D1004430D2006530D3006330D4008B
:1007E0002030D5007108D6007208D7007308D800F1
:1007F0002030D9004830DA006530DB007830DC008A
:100800002030DD007508DE007608DF005230E000A1
:100810007830E1004130E2005330E3004330E4003F
:100820004330E5004930E6002030E7004B08E8009F
:100830002030E9002030EA002030EB002030EC00CE
:100840002030ED002030EE002030EF000800831251
:1008500003135230D0007830D1004430D2006530DC
:10086000D3006330D4002030D5007108D600720860
:10087000D7007308D8002030D9004830DA0065303E
:10088000DB007830DC002030DD007508DE00760803
:10089000DF005230E0007830E1004130E2005330B8
:1008A000E3004330E4004330E5004930E600203007
:1008B000E7004B08E8002030E9005030EA004930FA
:1008C000EB004330EC002030ED005430EE00783087
:1008D000EF000800831203132008D0002108D10084
:1008E0002030D2002208D3002308D4002030D500C5
:1008F0002408D6002508D7002030D8002608D900C3
:100900002708DA002030DB002808DC002908DD0099
:100910002030DE002030DF002030E0002A08E10037
:100920002B08E2002030E3002030E4002C08E50032
:100930002D08E6002030E7002030E8002E08E9000E
:100940002F08EA002030EB002030EC002030ED00D2
:100950002030EE002030EF00080083120313F30173
:10096000F201F10103106430F0020318BA2C643074
:10097000F007BF2CF10A7008003A031DB22C0310D7
:100980000A30F0020318C82C0A307007F300CD2C8F
:10099000F20A7008003A031DBF2C3030F304F20451
:1009A000F104080083120313F501F6017408F60040
:1009B0000F30F6057608003A03191A2D7608013A29
:1009C00003191D2D7608023A0319202D7608033AE3
:1009D0000319232D7608043A0319262D7608053AC3
:1009E0000319292D7608063A03192C2D7608073AA3
:1009F00003192F2D7608083A0319322D7608093A83
:100A00000319352D76080A3A0319382D76080B3A62
:100A100003193B2D76080C3A03193E2D76080D3A42
:100A20000319412D76080E3A0319442D76080F3A22
:100A30000319472D3030F6004A2D3130F6004A2D8B
:100A40003230F6004A2D3330F6004A2D3430F600AD
:100A50004A2D3530F6004A2D3630F6004A2D373013
:100A6000F6004A2D3830F6004A2D3930F6004A2D6E
:100A70004130F6004A2D4230F6004A2D4330F60050
:100A80004A2D4430F6004A2D4530F6004A2D4630B6
:100A9000F6004A2DF40E0F307405F5007508003A83
:100AA00003198E2D7508013A0319912D7508023A24
:100AB0000319942D7508033A0319972D7508043A04
:100AC00003199A2D7508053A03199D2D7508063AE4
:100AD0000319A02D7508073A0319A32D7508083AC4
:100AE0000319A62D7508093A0319A92D75080A3AA4
:100AF0000319AC2D75080B3A0319AF2D75080C3A84
:100B00000319B22D75080D3A0319B52D75080E3A63
:100B10000319B82D75080F3A0319BB2D3030F500B5
:100B200008003130F50008003230F500080033309D
:100B3000F50008003430F50008003530F5000800F5
:100B40003630F50008003730F50008003830F50081
:100B500008003930F50008004130F5000800423047
:100B6000F50008004330F50008004430F5000800A7
:100B70004530F50008004630F50008000130A900B6
:100B8000A630AA00AA0BC22DA90BC02DA80BBE2D02
:100B900008000A30AA00AA0BCB2D0800FF30AB00DA
:100BA0000830AC00A630AD00AD0BD42DAC0BD22D6F
:100BB000AB0BD02D08007D30AB000830AC00A63068
:100BC000AD00AD0BE12DAC0BDF2DAB0BDD2D080027
:100BD00083160313263098001930990083120313EB
:0C0BE00098174A0899000C1EF32D08001D
:02400E00311966
:00000001FF
