:020000040000FA
:02000000532883
:08000800831203130C1B0B28EB
:100010008C1A1B280900831203138B131E08A200DD
:10002000831603131E0883120313A3000C138B17EC
:10003000AA30A7000900831203138B131A08CB0000
:10004000F000F40030245524ED23122251255125CF
:10005000512551251A08CB00E13A031931285028BF
:100060000900C130CA006B254C25CE08CA006B259B
:100070004C25CF08CA006B254C25CC08CA006B253F
:100080004C25CD08CA006B254C25C608CA006B2537
:100090004C25C708CA006B254C25C230CA006B2509
:1000A0008C128B170900831603133F3085008601DD
:1000B000BF3087008312031383120313A00185014D
:1000C00086018701A701C8015830B400B500B70008
:1000D000B600B800B900BA00BB00BC00BD00BE004D
:1000E000B121E0216723122251255125AA23122292
:1000F00083160313263098001930990083120313D6
:10010000981718168B170B17831603138C16831268
:1001100003138B170B179F111F129F125E251F15BC
:100120002708AA3A031D90288B130B135323480862
:10013000003A0319CC284808013A0319A8284808AE
:10014000023A0319B4284808033A0319C028CC28F6
:100150000430C900A3032308FF3A0319B028B128CB
:10016000A203C90BAA28CC280930C900A30323087D
:10017000FF3A0319BC28BD28A203C90BB628CC2816
:100180001230C900A3032308FF3A0319C828C9285D
:10019000A203C90BC228CC28A7010430C200422305
:1001A0000330C000E830C1000930C2002208CC0092
:1001B0002308CD008C223008A1007922260830388F
:1001C000B8003108A100792226083038B900320879
:1001D000A100792226083038BA003308A10079221C
:1001E00026083038BB00AA231222831203138B1770
:1001F0000B179F151F129F125E251F152708AA3A7D
:10020000031DFE288B130B1353234808003A0319D0
:100210003A294808013A031916294808023A0319ED
:1002200022294808033A03192E293A290430C90023
:10023000A3032308FF3A03191E291F29A203C90B90
:1002400018293A290830C900A3032308FF3A0319E3
:100250002A292B29A203C90B24293A290B30C900CA
:10026000A3032308FF3A031936293729A203C90B30
:1002700030293A29A7010030C0001630C1000930EA
:10028000C2008C223008CE003108CF00CF07CF0744
:10029000CF07CF07CF07CF07CF07CF07CF0732084A
:1002A000CF073008A100792226083038B50025088C
:1002B0003038B4003108A100792226083038B70060
:1002C0003208A100792226083038B600AA2312226B
:1002D000831203138B170B179F111F169F125E2596
:1002E0001F152708AA3A031D71298B130B13A701A9
:1002F0002208C6002308C7000930C200422300308C
:10030000C0001430C1000930C2008C223008A100A6
:10031000792226083038BD0025083038BC00310865
:10032000A100792226083038BE00AA231222031029
:10033000C60CC70C031028304702C7000318A629B3
:10034000C6034608FF3A0319AF29A6290310003057
:100350004602C6000318AD29AF29871787288713DF
:100360008728831603139F171F109F141F119F11B7
:10037000831203131F179F171F14831603130C17E1
:100380008312031308002008F039860086154C25D7
:100390008611200EF039860086154C25861106142C
:1003A00008002008F0398600061486154C258611B1
:1003B000200EF0398600061486154C25861108009B
:1003C0008312031300308600C830A8004125303066
:1003D000860086154C2586110A30A8004125861511
:1003E0004C25861186154C258611203086008615F1
:1003F0004C25861186154C25861180308600861581
:100400004C2586110E30A000C32151250130A000DB
:10041000C3212030A000D12151250C30A000C321E0
:10042000122208008030A000C3215008A000D12172
:100430005108A000D1215208A000D1215308A000EA
:10044000D1215408A000D1215508A000D12156087F
:10045000A000D1215708A000D1215808A000D12127
:100460005908A000D1215A08A000D1215B08A000A2
:10047000D1215C08A000D1215D08A000D1215E0837
:10048000A000D1215F08A000D121C030A000C3216D
:100490006008A000D1216108A000D1216208A0005D
:1004A000D1216308A000D1216408A000D1216508F2
:1004B000A000D1216608A000D1216708A000D121A9
:1004C0006808A000D1216908A000D1216A08A00015
:1004D000D1216B08A000D1216C08A000D1216D08AA
:1004E000A000D1216E08A000D1216F08A000D12169
:1004F000080083120313A601A50103100A30A1020C
:100500000318862A0A302107A6008B2AA50A21088B
:10051000003A031D7D2A080083120313B001B101C4
:10052000B201B301031041082302A3000318A52A56
:10053000A2032208FF3A03199E2AA52A4108A3070D
:100540000318A32ABD2AA20ABD2A031040082202CA
:10055000A2000318B42A4108A3070318B02AB12A3D
:10056000A20A4008A207BD2AB00A2308003A031DC8
:10057000922A2208003A031D922A422303104108BE
:100580002302A3000318D12AA2032208FF3A031969
:10059000CA2AD12A4108A3070318CF2AE92AA20AA6
:1005A000E92A031040082202A2000318E02A4108A9
:1005B000A3070318DC2ADD2AA20A4008A207E92AB9
:1005C000B10A2308003A031DBE2A2208003A031D7F
:1005D000BE2A4223031041082302A3000318FD2A68
:1005E000A2032208FF3A0319F62AFD2A4108A307AD
:1005F0000318FB2A152BA20A152B03104008220210
:10060000A20003180C2B4108A3070318082B092B81
:10061000A20A4008A207152BB20A2308003A031DBC
:10062000EA2A2208003A031DEA2A4223031041085D
:100630002302A3000318292BA2032208FF3A03195F
:10064000222B292B4108A3070318272B0800A20AF5
:100650000800031040082202A2000318382B4108AA
:10066000A3070318342B352BA20A4008A207080061
:10067000B30A2308003A031D162B2208003A031D73
:10068000162B08004208C3002308C5002208C40036
:100690004508A30703184D2B4E2BA20A4408A207B6
:1006A000C30B482B08002218582BA218612B5B2B78
:1006B000A218642B5E2B0030C80008000130C8006F
:1006C00008000230C80008000330C8000800831288
:1006D00003132030D0002030D1002030D20046302B
:1006E000D3007530D4006530D5006E30D60074303C
:1006F000D7006530D8002030D9006430DA0065308A
:10070000DB002030DC002030DD002030DE00203037
:10071000DF002030E0002030E1002030E200203017
:10072000E3005630E4006F30E5006C30E6007430D2
:10073000E7006130E8006A30E9006530EA00203007
:10074000EB002030EC002030ED002030EE002030B7
:10075000EF000800831203135630D0002030D10080
:100760003408D2003508D3002E30D4003708D50025
:100770003608D6005630D7002030D8002030D900B7
:100780005430DA006530DB006D30DC007030DD00A5
:100790002030DE002030DF004930E0002030E10072
:1007A0003808E2002E30E3003908E4003A08E5009A
:1007B0003B08E6004130E7002030E8003C08E90053
:1007C0003D08EA002E30EB003E08EC002030ED0042
:1007D000DF30EE004330EF00080083120313523085
:1007E000D0007830D1004430D2006530D30063307F
:1007F000D4002030D5007108D6007208D7007308E5
:10080000D8002030D9004830DA006530DB0078307D
:10081000DC002030DD007508DE007608DF00523095
:10082000E0007830E1004130E2005330E300433033
:10083000E4004330E5004930E6002030E7004B0893
:10084000E8002030E9002030EA002030EB002030C2
:10085000EC002030ED002030EE002030EF000800EA
:1008600083120313F301F201F10103106430F0026B
:1008700003183D2C6430F007422CF10A7008003A4E
:10088000031D352C03100A30F00203184B2C0A30DC
:100890007007F300502CF20A7008003A031D422C36
:1008A0003030F304F204F104080083120313F5015D
:1008B000F6017408F6000F30F6057608003A0319C1
:1008C0009D2C7608013A0319A02C7608023A0319E8
:1008D000A32C7608033A0319A62C7608043A0319C8
:1008E000A92C7608053A0319AC2C7608063A0319A8
:1008F000AF2C7608073A0319B22C7608083A031988
:10090000B52C7608093A0319B82C76080A3A031967
:10091000BB2C76080B3A0319BE2C76080C3A031947
:10092000C12C76080D3A0319C42C76080E3A031927
:10093000C72C76080F3A0319CA2C3030F600CD2C9C
:100940003130F600CD2C3230F600CD2C3330F600AD
:10095000CD2C3430F600CD2C3530F600CD2C363091
:10096000F600CD2C3730F600CD2C3830F600CD2CEB
:100970003930F600CD2C4130F600CD2C4230F60057
:10098000CD2C4330F600CD2C4430F600CD2C453034
:10099000F600CD2C4630F600CD2CF40E0F30740549
:1009A000F5007508003A0319112D7508013A03196D
:1009B000142D7508023A0319172D7508033A031907
:1009C0001A2D7508043A03191D2D7508053A0319E7
:1009D000202D7508063A0319232D7508073A0319C7
:1009E000262D7508083A0319292D7508093A0319A7
:1009F0002C2D75080A3A03192F2D75080B3A031987
:100A0000322D75080C3A0319352D75080D3A031966
:100A1000382D75080E3A03193B2D75080F3A031946
:100A20003E2D3030F50008003130F500080032303E
:100A3000F50008003330F50008003430F5000800F8
:100A40003530F50008003630F50008003730F50085
:100A500008003830F50008003930F5000800413052
:100A6000F50008004230F50008004330F5000800AA
:100A70004430F50008004530F50008004630F50028
:100A800008000230A900A630AA00AA0B452DA90B28
:100A9000432DA80B412D08000A30AA00AA0B4E2DA9
:100AA0000800FF30AB000830AC00A630AD00AD0B45
:100AB000572DAC0B552DAB0B532D08007D30AB00E3
:100AC0000830AC00A630AD00AD0B642DAC0B622D30
:100AD000AB0B602D080083160313263098001930E5
:100AE00099008312031398174A0899000C1E762D5B
:020AF0000800FC
:02400E00311966
:00000001FF
